{
  "_format": "hh-sol-artifact-1",
  "contractName": "DecentralizedVotingSys",
  "sourceName": "contracts/DecentralizedVotingSys.sol",
  "abi": [
    {
      "inputs": [
        {
          "internalType": "uint256",
          "name": "_registrationDeadline",
          "type": "uint256"
        },
        {
          "internalType": "uint256",
          "name": "_voteOptionsCount",
          "type": "uint256"
        }
      ],
      "stateMutability": "nonpayable",
      "type": "constructor"
    },
    {
      "anonymous": false,
      "inputs": [
        {
          "indexed": false,
          "internalType": "address",
          "name": "voter",
          "type": "address"
        },
        {
          "indexed": false,
          "internalType": "uint256",
          "name": "vote",
          "type": "uint256"
        }
      ],
      "name": "VoteCasted",
      "type": "event"
    },
    {
      "anonymous": false,
      "inputs": [
        {
          "indexed": false,
          "internalType": "address",
          "name": "voter",
          "type": "address"
        }
      ],
      "name": "VoterBlacklisted",
      "type": "event"
    },
    {
      "anonymous": false,
      "inputs": [
        {
          "indexed": false,
          "internalType": "address",
          "name": "voter",
          "type": "address"
        }
      ],
      "name": "VoterRegistered",
      "type": "event"
    },
    {
      "inputs": [
        {
          "internalType": "address",
          "name": "",
          "type": "address"
        }
      ],
      "name": "blacklisted",
      "outputs": [
        {
          "internalType": "bool",
          "name": "",
          "type": "bool"
        }
      ],
      "stateMutability": "view",
      "type": "function"
    },
    {
      "inputs": [
        {
          "internalType": "uint256",
          "name": "_vote",
          "type": "uint256"
        }
      ],
      "name": "castVote",
      "outputs": [],
      "stateMutability": "nonpayable",
      "type": "function"
    },
    {
      "inputs": [
        {
          "internalType": "uint256",
          "name": "_vote",
          "type": "uint256"
        }
      ],
      "name": "getVoteCount",
      "outputs": [
        {
          "internalType": "uint256",
          "name": "",
          "type": "uint256"
        }
      ],
      "stateMutability": "view",
      "type": "function"
    },
    {
      "inputs": [],
      "name": "getWinner",
      "outputs": [
        {
          "internalType": "uint256",
          "name": "winningVoteOption",
          "type": "uint256"
        }
      ],
      "stateMutability": "view",
      "type": "function"
    },
    {
      "inputs": [
        {
          "internalType": "address",
          "name": "_voter",
          "type": "address"
        }
      ],
      "name": "isBlacklisted",
      "outputs": [
        {
          "internalType": "bool",
          "name": "",
          "type": "bool"
        }
      ],
      "stateMutability": "view",
      "type": "function"
    },
    {
      "inputs": [],
      "name": "owner",
      "outputs": [
        {
          "internalType": "address",
          "name": "",
          "type": "address"
        }
      ],
      "stateMutability": "view",
      "type": "function"
    },
    {
      "inputs": [],
      "name": "register",
      "outputs": [],
      "stateMutability": "nonpayable",
      "type": "function"
    },
    {
      "inputs": [],
      "name": "registrationDeadline",
      "outputs": [
        {
          "internalType": "uint256",
          "name": "",
          "type": "uint256"
        }
      ],
      "stateMutability": "view",
      "type": "function"
    },
    {
      "inputs": [],
      "name": "voteOptionsCount",
      "outputs": [
        {
          "internalType": "uint256",
          "name": "",
          "type": "uint256"
        }
      ],
      "stateMutability": "view",
      "type": "function"
    },
    {
      "inputs": [
        {
          "internalType": "address",
          "name": "",
          "type": "address"
        }
      ],
      "name": "voters",
      "outputs": [
        {
          "internalType": "bool",
          "name": "isRegistered",
          "type": "bool"
        },
        {
          "internalType": "bool",
          "name": "hasVoted",
          "type": "bool"
        },
        {
          "internalType": "uint256",
          "name": "vote",
          "type": "uint256"
        }
      ],
      "stateMutability": "view",
      "type": "function"
    },
    {
      "inputs": [
        {
          "internalType": "uint256",
          "name": "",
          "type": "uint256"
        }
      ],
      "name": "votes",
      "outputs": [
        {
          "internalType": "uint256",
          "name": "",
          "type": "uint256"
        }
      ],
      "stateMutability": "view",
      "type": "function"
    }
  ],
  "bytecode": "0x608060405234801561001057600080fd5b50604051610f64380380610f648339818101604052810190610032919061009c565b336000806101000a81548173ffffffffffffffffffffffffffffffffffffffff021916908373ffffffffffffffffffffffffffffffffffffffff160217905550816003819055508060058190555050506100f9565b600081519050610096816100e2565b92915050565b600080604083850312156100af57600080fd5b60006100bd85828601610087565b92505060206100ce85828601610087565b9150509250929050565b6000819050919050565b6100eb816100d8565b81146100f657600080fd5b50565b610e5c806101086000396000f3fe608060405234801561001057600080fd5b50600436106100a95760003560e01c80638e7ea5b2116100715780638e7ea5b214610140578063a3ec138d1461015e578063a5d594e914610190578063b2c2f2e8146101ae578063dbac26e9146101de578063fe575a871461020e576100a9565b806311184392146100ae5780631aa3a008146100cc5780633eb76b9c146100d65780635df81330146100f25780638da5cb5b14610122575b600080fd5b6100b661023e565b6040516100c39190610bb5565b60405180910390f35b6100d4610244565b005b6100f060048036038101906100eb919061097a565b6103ab565b005b61010c6004803603810190610107919061097a565b610769565b6040516101199190610bb5565b60405180910390f35b61012a610781565b6040516101379190610a7f565b60405180910390f35b6101486107a5565b6040516101559190610bb5565b60405180910390f35b61017860048036038101906101739190610951565b610806565b60405161018793929190610ade565b60405180910390f35b61019861084a565b6040516101a59190610bb5565b60405180910390f35b6101c860048036038101906101c3919061097a565b610850565b6040516101d59190610bb5565b60405180910390f35b6101f860048036038101906101f39190610951565b6108b1565b6040516102059190610ac3565b60405180910390f35b61022860048036038101906102239190610951565b6108d1565b6040516102359190610ac3565b60405180910390f35b60035481565b6003544210610288576040517f08c379a000000000000000000000000000000000000000000000000000000000815260040161027f90610b15565b60405180910390fd5b600160003373ffffffffffffffffffffffffffffffffffffffff1673ffffffffffffffffffffffffffffffffffffffff16815260200190815260200160002060000160009054906101000a900460ff1615610318576040517f08c379a000000000000000000000000000000000000000000000000000000000815260040161030f90610b75565b60405180910390fd5b60018060003373ffffffffffffffffffffffffffffffffffffffff1673ffffffffffffffffffffffffffffffffffffffff16815260200190815260200160002060000160006101000a81548160ff0219169083151502179055507fb6be2187d059cc2a55fe29e0e503b566e1e0f8c8780096e185429350acffd3dd336040516103a19190610a7f565b60405180910390a1565b600160003373ffffffffffffffffffffffffffffffffffffffff1673ffffffffffffffffffffffffffffffffffffffff16815260200190815260200160002060000160009054906101000a900460ff1661043a576040517f08c379a000000000000000000000000000000000000000000000000000000000815260040161043190610b95565b60405180910390fd5b600554811061047e576040517f08c379a000000000000000000000000000000000000000000000000000000000815260040161047590610b35565b60405180910390fd5b600260003373ffffffffffffffffffffffffffffffffffffffff1673ffffffffffffffffffffffffffffffffffffffff16815260200190815260200160002060009054906101000a900460ff161561050b576040517f08c379a000000000000000000000000000000000000000000000000000000000815260040161050290610b55565b60405180910390fd5b600160003373ffffffffffffffffffffffffffffffffffffffff1673ffffffffffffffffffffffffffffffffffffffff16815260200190815260200160002060000160019054906101000a900460ff161561066057600160046000600160003373ffffffffffffffffffffffffffffffffffffffff1673ffffffffffffffffffffffffffffffffffffffff16815260200190815260200160002060010154815260200190815260200160002060008282546105c69190610c37565b925050819055506001600260003373ffffffffffffffffffffffffffffffffffffffff1673ffffffffffffffffffffffffffffffffffffffff16815260200190815260200160002060006101000a81548160ff0219169083151502179055507e8471fa6bfdb5180799dd866e4f409add503a3a060686d106f4015aac5483d0336040516106539190610a7f565b60405180910390a1610766565b60018060003373ffffffffffffffffffffffffffffffffffffffff1673ffffffffffffffffffffffffffffffffffffffff16815260200190815260200160002060000160016101000a81548160ff02191690831515021790555080600160003373ffffffffffffffffffffffffffffffffffffffff1673ffffffffffffffffffffffffffffffffffffffff1681526020019081526020016000206001018190555060016004600083815260200190815260200160002060008282546107259190610be1565b925050819055507fd0e6c39f2e086dc49f1524b47725526a56945cd1ff661f37976f1725a1e56986338260405161075d929190610a9a565b60405180910390a15b50565b60046020528060005260406000206000915090505481565b60008054906101000a900473ffffffffffffffffffffffffffffffffffffffff1681565b6000806000905060005b6005548110156108015781600460008381526020019081526020016000205411156107ee57600460008281526020019081526020016000205491508092505b80806107f990610cb3565b9150506107af565b505090565b60016020528060005260406000206000915090508060000160009054906101000a900460ff16908060000160019054906101000a900460ff16908060010154905083565b60055481565b60006005548210610896576040517f08c379a000000000000000000000000000000000000000000000000000000000815260040161088d90610b35565b60405180910390fd5b60046000838152602001908152602001600020549050919050565b60026020528060005260406000206000915054906101000a900460ff1681565b6000600260008373ffffffffffffffffffffffffffffffffffffffff1673ffffffffffffffffffffffffffffffffffffffff16815260200190815260200160002060009054906101000a900460ff169050919050565b60008135905061093681610df8565b92915050565b60008135905061094b81610e0f565b92915050565b60006020828403121561096357600080fd5b600061097184828501610927565b91505092915050565b60006020828403121561098c57600080fd5b600061099a8482850161093c565b91505092915050565b6109ac81610c6b565b82525050565b6109bb81610c7d565b82525050565b60006109ce601b83610bd0565b91506109d982610d2b565b602082019050919050565b60006109f1601383610bd0565b91506109fc82610d54565b602082019050919050565b6000610a14601483610bd0565b9150610a1f82610d7d565b602082019050919050565b6000610a37601b83610bd0565b9150610a4282610da6565b602082019050919050565b6000610a5a601783610bd0565b9150610a6582610dcf565b602082019050919050565b610a7981610ca9565b82525050565b6000602082019050610a9460008301846109a3565b92915050565b6000604082019050610aaf60008301856109a3565b610abc6020830184610a70565b9392505050565b6000602082019050610ad860008301846109b2565b92915050565b6000606082019050610af360008301866109b2565b610b0060208301856109b2565b610b0d6040830184610a70565b949350505050565b60006020820190508181036000830152610b2e816109c1565b9050919050565b60006020820190508181036000830152610b4e816109e4565b9050919050565b60006020820190508181036000830152610b6e81610a07565b9050919050565b60006020820190508181036000830152610b8e81610a2a565b9050919050565b60006020820190508181036000830152610bae81610a4d565b9050919050565b6000602082019050610bca6000830184610a70565b92915050565b600082825260208201905092915050565b6000610bec82610ca9565b9150610bf783610ca9565b9250827fffffffffffffffffffffffffffffffffffffffffffffffffffffffffffffffff03821115610c2c57610c2b610cfc565b5b828201905092915050565b6000610c4282610ca9565b9150610c4d83610ca9565b925082821015610c6057610c5f610cfc565b5b828203905092915050565b6000610c7682610c89565b9050919050565b60008115159050919050565b600073ffffffffffffffffffffffffffffffffffffffff82169050919050565b6000819050919050565b6000610cbe82610ca9565b91507fffffffffffffffffffffffffffffffffffffffffffffffffffffffffffffffff821415610cf157610cf0610cfc565b5b600182019050919050565b7f4e487b7100000000000000000000000000000000000000000000000000000000600052601160045260246000fd5b7f526567697374726174696f6e20706572696f64206973206f7665720000000000600082015250565b7f496e76616c696420766f7465206f7074696f6e00000000000000000000000000600082015250565b7f566f74657220697320626c61636b6c6973746564000000000000000000000000600082015250565b7f566f74657220697320616c726561647920726567697374657265640000000000600082015250565b7f566f746572206973206e6f742072656769737465726564000000000000000000600082015250565b610e0181610c6b565b8114610e0c57600080fd5b50565b610e1881610ca9565b8114610e2357600080fd5b5056fea2646970667358221220aa5337bb94cebc63aa3299e5a67da3c5712e83525a27a3b4ccc0faaaf76ff2ad64736f6c63430008040033",
  "linkReferences": {},
  "deployedLinkReferences": {}
}